20230628-16:59:01.119300000 : 8=FIX.4.3|9=76|35=A|34=387|49=SDSJVM|52=20230628-16:59:01.090|56=SERVER|98=0|108=600000000|10=122|
20230628-16:59:06.054779000 : 8=FIX.4.3|9=76|35=A|34=388|49=SDSJVM|52=20230628-16:59:06.053|56=SERVER|98=0|108=600000000|10=127|
